{
	"data": {
		"bytecode": {
			"linkReferences": {},
			"object": "608060405234801561000f575f80fd5b506103e18061001d5f395ff3fe608060405234801561000f575f80fd5b5060043610610029575f3560e01c806393c9f50c1461002d575b5f80fd5b61004760048036038101906100429190610175565b61005e565b604051610055929190610266565b60405180910390f35b60605f805f90505f8467ffffffffffffffff8111156100805761007f610294565b5b6040519080825280602002602001820160405280156100ae5781602001602082028036833780820191505090505b5090505f5b85811015610130575f6002826100c991906102ee565b03610123576001816100db919061034b565b8282815181106100ee576100ed61037e565b5b60200260200101818152505081818151811061010d5761010c61037e565b5b602002602001015183610120919061034b565b92505b80806001019150506100b3565b508082935093505050915091565b5f80fd5b5f819050919050565b61015481610142565b811461015e575f80fd5b50565b5f8135905061016f8161014b565b92915050565b5f6020828403121561018a5761018961013e565b5b5f61019784828501610161565b91505092915050565b5f81519050919050565b5f82825260208201905092915050565b5f819050602082019050919050565b6101d281610142565b82525050565b5f6101e383836101c9565b60208301905092915050565b5f602082019050919050565b5f610205826101a0565b61020f81856101aa565b935061021a836101ba565b805f5b8381101561024a57815161023188826101d8565b975061023c836101ef565b92505060018101905061021d565b5085935050505092915050565b61026081610142565b82525050565b5f6040820190508181035f83015261027e81856101fb565b905061028d6020830184610257565b9392505050565b7f4e487b71000000000000000000000000000000000000000000000000000000005f52604160045260245ffd5b7f4e487b71000000000000000000000000000000000000000000000000000000005f52601260045260245ffd5b5f6102f882610142565b915061030383610142565b925082610313576103126102c1565b5b828206905092915050565b7f4e487b71000000000000000000000000000000000000000000000000000000005f52601160045260245ffd5b5f61035582610142565b915061036083610142565b92508282019050808211156103785761037761031e565b5b92915050565b7f4e487b71000000000000000000000000000000000000000000000000000000005f52603260045260245ffdfea264697066735822122095e0dd23b84146550152216b9e9e5a4f65d695fe8356af169466e8719c3b742664736f6c63430008180033",
			"opcodes": "PUSH1 0x80 PUSH1 0x40 MSTORE CALLVALUE DUP1 ISZERO PUSH2 0xF JUMPI PUSH0 DUP1 REVERT JUMPDEST POP PUSH2 0x3E1 DUP1 PUSH2 0x1D PUSH0 CODECOPY PUSH0 RETURN INVALID PUSH1 0x80 PUSH1 0x40 MSTORE CALLVALUE DUP1 ISZERO PUSH2 0xF JUMPI PUSH0 DUP1 REVERT JUMPDEST POP PUSH1 0x4 CALLDATASIZE LT PUSH2 0x29 JUMPI PUSH0 CALLDATALOAD PUSH1 0xE0 SHR DUP1 PUSH4 0x93C9F50C EQ PUSH2 0x2D JUMPI JUMPDEST PUSH0 DUP1 REVERT JUMPDEST PUSH2 0x47 PUSH1 0x4 DUP1 CALLDATASIZE SUB DUP2 ADD SWAP1 PUSH2 0x42 SWAP2 SWAP1 PUSH2 0x175 JUMP JUMPDEST PUSH2 0x5E JUMP JUMPDEST PUSH1 0x40 MLOAD PUSH2 0x55 SWAP3 SWAP2 SWAP1 PUSH2 0x266 JUMP JUMPDEST PUSH1 0x40 MLOAD DUP1 SWAP2 SUB SWAP1 RETURN JUMPDEST PUSH1 0x60 PUSH0 DUP1 PUSH0 SWAP1 POP PUSH0 DUP5 PUSH8 0xFFFFFFFFFFFFFFFF DUP2 GT ISZERO PUSH2 0x80 JUMPI PUSH2 0x7F PUSH2 0x294 JUMP JUMPDEST JUMPDEST PUSH1 0x40 MLOAD SWAP1 DUP1 DUP3 MSTORE DUP1 PUSH1 0x20 MUL PUSH1 0x20 ADD DUP3 ADD PUSH1 0x40 MSTORE DUP1 ISZERO PUSH2 0xAE JUMPI DUP2 PUSH1 0x20 ADD PUSH1 0x20 DUP3 MUL DUP1 CALLDATASIZE DUP4 CALLDATACOPY DUP1 DUP3 ADD SWAP2 POP POP SWAP1 POP JUMPDEST POP SWAP1 POP PUSH0 JUMPDEST DUP6 DUP2 LT ISZERO PUSH2 0x130 JUMPI PUSH0 PUSH1 0x2 DUP3 PUSH2 0xC9 SWAP2 SWAP1 PUSH2 0x2EE JUMP JUMPDEST SUB PUSH2 0x123 JUMPI PUSH1 0x1 DUP2 PUSH2 0xDB SWAP2 SWAP1 PUSH2 0x34B JUMP JUMPDEST DUP3 DUP3 DUP2 MLOAD DUP2 LT PUSH2 0xEE JUMPI PUSH2 0xED PUSH2 0x37E JUMP JUMPDEST JUMPDEST PUSH1 0x20 MUL PUSH1 0x20 ADD ADD DUP2 DUP2 MSTORE POP POP DUP2 DUP2 DUP2 MLOAD DUP2 LT PUSH2 0x10D JUMPI PUSH2 0x10C PUSH2 0x37E JUMP JUMPDEST JUMPDEST PUSH1 0x20 MUL PUSH1 0x20 ADD ADD MLOAD DUP4 PUSH2 0x120 SWAP2 SWAP1 PUSH2 0x34B JUMP JUMPDEST SWAP3 POP JUMPDEST DUP1 DUP1 PUSH1 0x1 ADD SWAP2 POP POP PUSH2 0xB3 JUMP JUMPDEST POP DUP1 DUP3 SWAP4 POP SWAP4 POP POP POP SWAP2 POP SWAP2 JUMP JUMPDEST PUSH0 DUP1 REVERT JUMPDEST PUSH0 DUP2 SWAP1 POP SWAP2 SWAP1 POP JUMP JUMPDEST PUSH2 0x154 DUP2 PUSH2 0x142 JUMP JUMPDEST DUP2 EQ PUSH2 0x15E JUMPI PUSH0 DUP1 REVERT JUMPDEST POP JUMP JUMPDEST PUSH0 DUP2 CALLDATALOAD SWAP1 POP PUSH2 0x16F DUP2 PUSH2 0x14B JUMP JUMPDEST SWAP3 SWAP2 POP POP JUMP JUMPDEST PUSH0 PUSH1 0x20 DUP3 DUP5 SUB SLT ISZERO PUSH2 0x18A JUMPI PUSH2 0x189 PUSH2 0x13E JUMP JUMPDEST JUMPDEST PUSH0 PUSH2 0x197 DUP5 DUP3 DUP6 ADD PUSH2 0x161 JUMP JUMPDEST SWAP2 POP POP SWAP3 SWAP2 POP POP JUMP JUMPDEST PUSH0 DUP2 MLOAD SWAP1 POP SWAP2 SWAP1 POP JUMP JUMPDEST PUSH0 DUP3 DUP3 MSTORE PUSH1 0x20 DUP3 ADD SWAP1 POP SWAP3 SWAP2 POP POP JUMP JUMPDEST PUSH0 DUP2 SWAP1 POP PUSH1 0x20 DUP3 ADD SWAP1 POP SWAP2 SWAP1 POP JUMP JUMPDEST PUSH2 0x1D2 DUP2 PUSH2 0x142 JUMP JUMPDEST DUP3 MSTORE POP POP JUMP JUMPDEST PUSH0 PUSH2 0x1E3 DUP4 DUP4 PUSH2 0x1C9 JUMP JUMPDEST PUSH1 0x20 DUP4 ADD SWAP1 POP SWAP3 SWAP2 POP POP JUMP JUMPDEST PUSH0 PUSH1 0x20 DUP3 ADD SWAP1 POP SWAP2 SWAP1 POP JUMP JUMPDEST PUSH0 PUSH2 0x205 DUP3 PUSH2 0x1A0 JUMP JUMPDEST PUSH2 0x20F DUP2 DUP6 PUSH2 0x1AA JUMP JUMPDEST SWAP4 POP PUSH2 0x21A DUP4 PUSH2 0x1BA JUMP JUMPDEST DUP1 PUSH0 JUMPDEST DUP4 DUP2 LT ISZERO PUSH2 0x24A JUMPI DUP2 MLOAD PUSH2 0x231 DUP9 DUP3 PUSH2 0x1D8 JUMP JUMPDEST SWAP8 POP PUSH2 0x23C DUP4 PUSH2 0x1EF JUMP JUMPDEST SWAP3 POP POP PUSH1 0x1 DUP2 ADD SWAP1 POP PUSH2 0x21D JUMP JUMPDEST POP DUP6 SWAP4 POP POP POP POP SWAP3 SWAP2 POP POP JUMP JUMPDEST PUSH2 0x260 DUP2 PUSH2 0x142 JUMP JUMPDEST DUP3 MSTORE POP POP JUMP JUMPDEST PUSH0 PUSH1 0x40 DUP3 ADD SWAP1 POP DUP2 DUP2 SUB PUSH0 DUP4 ADD MSTORE PUSH2 0x27E DUP2 DUP6 PUSH2 0x1FB JUMP JUMPDEST SWAP1 POP PUSH2 0x28D PUSH1 0x20 DUP4 ADD DUP5 PUSH2 0x257 JUMP JUMPDEST SWAP4 SWAP3 POP POP POP JUMP JUMPDEST PUSH32 0x4E487B7100000000000000000000000000000000000000000000000000000000 PUSH0 MSTORE PUSH1 0x41 PUSH1 0x4 MSTORE PUSH1 0x24 PUSH0 REVERT JUMPDEST PUSH32 0x4E487B7100000000000000000000000000000000000000000000000000000000 PUSH0 MSTORE PUSH1 0x12 PUSH1 0x4 MSTORE PUSH1 0x24 PUSH0 REVERT JUMPDEST PUSH0 PUSH2 0x2F8 DUP3 PUSH2 0x142 JUMP JUMPDEST SWAP2 POP PUSH2 0x303 DUP4 PUSH2 0x142 JUMP JUMPDEST SWAP3 POP DUP3 PUSH2 0x313 JUMPI PUSH2 0x312 PUSH2 0x2C1 JUMP JUMPDEST JUMPDEST DUP3 DUP3 MOD SWAP1 POP SWAP3 SWAP2 POP POP JUMP JUMPDEST PUSH32 0x4E487B7100000000000000000000000000000000000000000000000000000000 PUSH0 MSTORE PUSH1 0x11 PUSH1 0x4 MSTORE PUSH1 0x24 PUSH0 REVERT JUMPDEST PUSH0 PUSH2 0x355 DUP3 PUSH2 0x142 JUMP JUMPDEST SWAP2 POP PUSH2 0x360 DUP4 PUSH2 0x142 JUMP JUMPDEST SWAP3 POP DUP3 DUP3 ADD SWAP1 POP DUP1 DUP3 GT ISZERO PUSH2 0x378 JUMPI PUSH2 0x377 PUSH2 0x31E JUMP JUMPDEST JUMPDEST SWAP3 SWAP2 POP POP JUMP JUMPDEST PUSH32 0x4E487B7100000000000000000000000000000000000000000000000000000000 PUSH0 MSTORE PUSH1 0x32 PUSH1 0x4 MSTORE PUSH1 0x24 PUSH0 REVERT INVALID LOG2 PUSH5 0x6970667358 0x22 SLT KECCAK256 SWAP6 0xE0 0xDD 0x23 0xB8 COINBASE CHAINID SSTORE ADD MSTORE 0x21 PUSH12 0x9E9E5A4F65D695FE8356AF16 SWAP5 PUSH7 0xE8719C3B742664 PUSH20 0x6F6C634300081800330000000000000000000000 "
		},
		"gasEstimates": {
			"creation": {
				"codeDepositCost": "198600",
				"executionCost": "243",
				"totalCost": "198843"
			},
			"external": {
				"loop1(uint256)": "infinite"
			}
		},
		"methodIdentifiers": {
			"loop1(uint256)": "93c9f50c"
		}
	},
	"abi": [
		{
			"inputs": [
				{
					"internalType": "uint256",
					"name": "n",
					"type": "uint256"
				}
			],
			"name": "loop1",
			"outputs": [
				{
					"internalType": "uint256[]",
					"name": "",
					"type": "uint256[]"
				},
				{
					"internalType": "uint256",
					"name": "",
					"type": "uint256"
				}
			],
			"stateMutability": "pure",
			"type": "function"
		}
	]
}